{
  "_format": "hh-sol-artifact-1",
  "contractName": "Sales",
  "sourceName": "contracts/Sales.sol",
  "abi": [
    {
      "anonymous": false,
      "inputs": [
        {
          "indexed": true,
          "internalType": "address",
          "name": "previousOwner",
          "type": "address"
        },
        {
          "indexed": true,
          "internalType": "address",
          "name": "newOwner",
          "type": "address"
        }
      ],
      "name": "OwnershipTransferred",
      "type": "event"
    },
    {
      "inputs": [
        {
          "internalType": "uint256",
          "name": "saleId",
          "type": "uint256"
        }
      ],
      "name": "getSaleById",
      "outputs": [
        {
          "components": [
            {
              "internalType": "uint256",
              "name": "saleId",
              "type": "uint256"
            },
            {
              "internalType": "uint256",
              "name": "userId",
              "type": "uint256"
            },
            {
              "internalType": "string[]",
              "name": "items",
              "type": "string[]"
            },
            {
              "internalType": "uint256[]",
              "name": "prices",
              "type": "uint256[]"
            }
          ],
          "internalType": "struct Sales.SaleStruct",
          "name": "",
          "type": "tuple"
        }
      ],
      "stateMutability": "view",
      "type": "function"
    },
    {
      "inputs": [],
      "name": "getSales",
      "outputs": [
        {
          "components": [
            {
              "internalType": "uint256",
              "name": "saleId",
              "type": "uint256"
            },
            {
              "internalType": "uint256",
              "name": "userId",
              "type": "uint256"
            },
            {
              "internalType": "string[]",
              "name": "items",
              "type": "string[]"
            },
            {
              "internalType": "uint256[]",
              "name": "prices",
              "type": "uint256[]"
            }
          ],
          "internalType": "struct Sales.SaleStruct[]",
          "name": "",
          "type": "tuple[]"
        }
      ],
      "stateMutability": "view",
      "type": "function"
    },
    {
      "inputs": [
        {
          "internalType": "uint256",
          "name": "userId",
          "type": "uint256"
        }
      ],
      "name": "getSalesByUserId",
      "outputs": [
        {
          "components": [
            {
              "internalType": "uint256",
              "name": "saleId",
              "type": "uint256"
            },
            {
              "internalType": "uint256",
              "name": "userId",
              "type": "uint256"
            },
            {
              "internalType": "string[]",
              "name": "items",
              "type": "string[]"
            },
            {
              "internalType": "uint256[]",
              "name": "prices",
              "type": "uint256[]"
            }
          ],
          "internalType": "struct Sales.SaleStruct[]",
          "name": "",
          "type": "tuple[]"
        }
      ],
      "stateMutability": "view",
      "type": "function"
    },
    {
      "inputs": [
        {
          "internalType": "uint256",
          "name": "userId",
          "type": "uint256"
        },
        {
          "internalType": "string[]",
          "name": "items",
          "type": "string[]"
        },
        {
          "internalType": "uint256[]",
          "name": "prices",
          "type": "uint256[]"
        }
      ],
      "name": "insertSale",
      "outputs": [
        {
          "internalType": "uint256",
          "name": "",
          "type": "uint256"
        }
      ],
      "stateMutability": "nonpayable",
      "type": "function"
    },
    {
      "inputs": [],
      "name": "owner",
      "outputs": [
        {
          "internalType": "address",
          "name": "",
          "type": "address"
        }
      ],
      "stateMutability": "view",
      "type": "function"
    },
    {
      "inputs": [],
      "name": "renounceOwnership",
      "outputs": [],
      "stateMutability": "nonpayable",
      "type": "function"
    },
    {
      "inputs": [
        {
          "internalType": "uint256",
          "name": "",
          "type": "uint256"
        }
      ],
      "name": "sales",
      "outputs": [
        {
          "internalType": "uint256",
          "name": "saleId",
          "type": "uint256"
        },
        {
          "internalType": "uint256",
          "name": "userId",
          "type": "uint256"
        }
      ],
      "stateMutability": "view",
      "type": "function"
    },
    {
      "inputs": [
        {
          "internalType": "address",
          "name": "newOwner",
          "type": "address"
        }
      ],
      "name": "transferOwnership",
      "outputs": [],
      "stateMutability": "nonpayable",
      "type": "function"
    }
  ],
  "bytecode": "0x608060405234801561001057600080fd5b5061002d61002261003260201b60201c565b61003a60201b60201c565b6100fe565b600033905090565b60008060009054906101000a900473ffffffffffffffffffffffffffffffffffffffff169050816000806101000a81548173ffffffffffffffffffffffffffffffffffffffff021916908373ffffffffffffffffffffffffffffffffffffffff1602179055508173ffffffffffffffffffffffffffffffffffffffff168173ffffffffffffffffffffffffffffffffffffffff167f8be0079c531659141344cd1fd0a4f28419497f9722a3daafe3b4186f6b6457e060405160405180910390a35050565b611a518061010d6000396000f3fe608060405234801561001057600080fd5b50600436106100885760003560e01c8063b5f522f71161005b578063b5f522f714610103578063bead255b14610134578063f2fde38b14610164578063f8bd2a281461018057610088565b80630d83304c1461008d57806310117f2e146100ab578063715018a6146100db5780638da5cb5b146100e5575b600080fd5b6100956101b0565b6040516100a29190610fc8565b60405180910390f35b6100c560048036038101906100c0919061102a565b6103cf565b6040516100d29190610fc8565b60405180910390f35b6100e36106b7565b005b6100ed6106cb565b6040516100fa9190611098565b60405180910390f35b61011d6004803603810190610118919061102a565b6106f4565b60405161012b9291906110c2565b60405180910390f35b61014e6004803603810190610149919061102a565b610718565b60405161015b9190611155565b60405180910390f35b61017e600480360381019061017991906111a3565b61088a565b005b61019a600480360381019061019591906114ae565b61090d565b6040516101a79190611539565b60405180910390f35b606060006101be60016109c5565b67ffffffffffffffff8111156101d7576101d66111d5565b5b60405190808252806020026020018201604052801561021057816020015b6101fd610b33565b8152602001906001900390816101f55790505b50905060005b61022060016109c5565b8110156103c75760006002600060018461023a9190611583565b8152602001908152602001600020905080604051806080016040529081600082015481526020016001820154815260200160028201805480602002602001604051908101604052809291908181526020016000905b8282101561033b5783829060005260206000200180546102ae906115e6565b80601f01602080910402602001604051908101604052809291908181526020018280546102da906115e6565b80156103275780601f106102fc57610100808354040283529160200191610327565b820191906000526020600020905b81548152906001019060200180831161030a57829003601f168201915b50505050508152602001906001019061028f565b5050505081526020016003820180548060200260200160405190810160405280929190818152602001828054801561039257602002820191906000526020600020905b81548152602001906001019080831161037e575b5050505050815250508383815181106103ae576103ad611617565b5b6020026020010181905250508080600101915050610216565b508091505090565b606060006103dd60016109c5565b67ffffffffffffffff8111156103f6576103f56111d5565b5b60405190808252806020026020018201604052801561042f57816020015b61041c610b33565b8152602001906001900390816104145790505b5090506000805b61044060016109c5565b8110156106015760006002600060018461045a9190611583565b81526020019081526020016000209050858160010154036105f35780604051806080016040529081600082015481526020016001820154815260200160028201805480602002602001604051908101604052809291908181526020016000905b828210156105665783829060005260206000200180546104d9906115e6565b80601f0160208091040260200160405190810160405280929190818152602001828054610505906115e6565b80156105525780601f1061052757610100808354040283529160200191610552565b820191906000526020600020905b81548152906001019060200180831161053557829003601f168201915b5050505050815260200190600101906104ba565b505050508152602001600382018054806020026020016040519081016040528092919081815260200182805480156105bd57602002820191906000526020600020905b8154815260200190600101908083116105a9575b5050505050815250508484815181106105d9576105d8611617565b5b602002602001018190525082806105ef90611646565b9350505b508080600101915050610436565b5060008167ffffffffffffffff81111561061e5761061d6111d5565b5b60405190808252806020026020018201604052801561065757816020015b610644610b33565b81526020019060019003908161063c5790505b50905060005b828110156106ab5783818151811061067857610677611617565b5b602002602001015182828151811061069357610692611617565b5b6020026020010181905250808060010191505061065d565b50809350505050919050565b6106bf6109d3565b6106c96000610a51565b565b60008060009054906101000a900473ffffffffffffffffffffffffffffffffffffffff16905090565b60026020528060005260406000206000915090508060000154908060010154905082565b610720610b33565b60026000838152602001908152602001600020604051806080016040529081600082015481526020016001820154815260200160028201805480602002602001604051908101604052809291908181526020016000905b82821015610823578382906000526020600020018054610796906115e6565b80601f01602080910402602001604051908101604052809291908181526020018280546107c2906115e6565b801561080f5780601f106107e45761010080835404028352916020019161080f565b820191906000526020600020905b8154815290600101906020018083116107f257829003601f168201915b505050505081526020019060010190610777565b5050505081526020016003820180548060200260200160405190810160405280929190818152602001828054801561087a57602002820191906000526020600020905b815481526020019060010190808311610866575b5050505050815250509050919050565b6108926109d3565b600073ffffffffffffffffffffffffffffffffffffffff168173ffffffffffffffffffffffffffffffffffffffff1603610901576040517f08c379a00000000000000000000000000000000000000000000000000000000081526004016108f890611711565b60405180910390fd5b61090a81610a51565b50565b60006109176109d3565b6109216001610b15565b600061092d60016109c5565b905060006040518060800160405280838152602001878152602001868152602001858152509050806002600084815260200190815260200160002060008201518160000155602082015181600101556040820151816002019080519060200190610998929190610b5b565b5060608201518160030190805190602001906109b5929190610bb4565b5090505081925050509392505050565b600081600001549050919050565b6109db610b2b565b73ffffffffffffffffffffffffffffffffffffffff166109f96106cb565b73ffffffffffffffffffffffffffffffffffffffff1614610a4f576040517f08c379a0000000000000000000000000000000000000000000000000000000008152600401610a469061177d565b60405180910390fd5b565b60008060009054906101000a900473ffffffffffffffffffffffffffffffffffffffff169050816000806101000a81548173ffffffffffffffffffffffffffffffffffffffff021916908373ffffffffffffffffffffffffffffffffffffffff1602179055508173ffffffffffffffffffffffffffffffffffffffff168173ffffffffffffffffffffffffffffffffffffffff167f8be0079c531659141344cd1fd0a4f28419497f9722a3daafe3b4186f6b6457e060405160405180910390a35050565b6001816000016000828254019250508190555050565b600033905090565b6040518060800160405280600081526020016000815260200160608152602001606081525090565b828054828255906000526020600020908101928215610ba3579160200282015b82811115610ba2578251829081610b929190611949565b5091602001919060010190610b7b565b5b509050610bb09190610c01565b5090565b828054828255906000526020600020908101928215610bf0579160200282015b82811115610bef578251825591602001919060010190610bd4565b5b509050610bfd9190610c25565b5090565b5b80821115610c215760008181610c189190610c42565b50600101610c02565b5090565b5b80821115610c3e576000816000905550600101610c26565b5090565b508054610c4e906115e6565b6000825580601f10610c605750610c7f565b601f016020900490600052602060002090810190610c7e9190610c25565b5b50565b600081519050919050565b600082825260208201905092915050565b6000819050602082019050919050565b6000819050919050565b610cc181610cae565b82525050565b600081519050919050565b600082825260208201905092915050565b6000819050602082019050919050565b600081519050919050565b600082825260208201905092915050565b60005b83811015610d2d578082015181840152602081019050610d12565b60008484015250505050565b6000601f19601f8301169050919050565b6000610d5582610cf3565b610d5f8185610cfe565b9350610d6f818560208601610d0f565b610d7881610d39565b840191505092915050565b6000610d8f8383610d4a565b905092915050565b6000602082019050919050565b6000610daf82610cc7565b610db98185610cd2565b935083602082028501610dcb85610ce3565b8060005b85811015610e075784840389528151610de88582610d83565b9450610df383610d97565b925060208a01995050600181019050610dcf565b50829750879550505050505092915050565b600081519050919050565b600082825260208201905092915050565b6000819050602082019050919050565b6000610e518383610cb8565b60208301905092915050565b6000602082019050919050565b6000610e7582610e19565b610e7f8185610e24565b9350610e8a83610e35565b8060005b83811015610ebb578151610ea28882610e45565b9750610ead83610e5d565b925050600181019050610e8e565b5085935050505092915050565b6000608083016000830151610ee06000860182610cb8565b506020830151610ef36020860182610cb8565b5060408301518482036040860152610f0b8282610da4565b91505060608301518482036060860152610f258282610e6a565b9150508091505092915050565b6000610f3e8383610ec8565b905092915050565b6000602082019050919050565b6000610f5e82610c82565b610f688185610c8d565b935083602082028501610f7a85610c9e565b8060005b85811015610fb65784840389528151610f978582610f32565b9450610fa283610f46565b925060208a01995050600181019050610f7e565b50829750879550505050505092915050565b60006020820190508181036000830152610fe28184610f53565b905092915050565b6000604051905090565b600080fd5b600080fd5b61100781610cae565b811461101257600080fd5b50565b60008135905061102481610ffe565b92915050565b6000602082840312156110405761103f610ff4565b5b600061104e84828501611015565b91505092915050565b600073ffffffffffffffffffffffffffffffffffffffff82169050919050565b600061108282611057565b9050919050565b61109281611077565b82525050565b60006020820190506110ad6000830184611089565b92915050565b6110bc81610cae565b82525050565b60006040820190506110d760008301856110b3565b6110e460208301846110b3565b9392505050565b60006080830160008301516111036000860182610cb8565b5060208301516111166020860182610cb8565b506040830151848203604086015261112e8282610da4565b915050606083015184820360608601526111488282610e6a565b9150508091505092915050565b6000602082019050818103600083015261116f81846110eb565b905092915050565b61118081611077565b811461118b57600080fd5b50565b60008135905061119d81611177565b92915050565b6000602082840312156111b9576111b8610ff4565b5b60006111c78482850161118e565b91505092915050565b600080fd5b7f4e487b7100000000000000000000000000000000000000000000000000000000600052604160045260246000fd5b61120d82610d39565b810181811067ffffffffffffffff8211171561122c5761122b6111d5565b5b80604052505050565b600061123f610fea565b905061124b8282611204565b919050565b600067ffffffffffffffff82111561126b5761126a6111d5565b5b602082029050602081019050919050565b600080fd5b600080fd5b600067ffffffffffffffff8211156112a1576112a06111d5565b5b6112aa82610d39565b9050602081019050919050565b82818337600083830152505050565b60006112d96112d484611286565b611235565b9050828152602081018484840111156112f5576112f4611281565b5b6113008482856112b7565b509392505050565b600082601f83011261131d5761131c6111d0565b5b813561132d8482602086016112c6565b91505092915050565b600061134961134484611250565b611235565b9050808382526020820190506020840283018581111561136c5761136b61127c565b5b835b818110156113b357803567ffffffffffffffff811115611391576113906111d0565b5b80860161139e8982611308565b8552602085019450505060208101905061136e565b5050509392505050565b600082601f8301126113d2576113d16111d0565b5b81356113e2848260208601611336565b91505092915050565b600067ffffffffffffffff821115611406576114056111d5565b5b602082029050602081019050919050565b600061142a611425846113eb565b611235565b9050808382526020820190506020840283018581111561144d5761144c61127c565b5b835b8181101561147657806114628882611015565b84526020840193505060208101905061144f565b5050509392505050565b600082601f830112611495576114946111d0565b5b81356114a5848260208601611417565b91505092915050565b6000806000606084860312156114c7576114c6610ff4565b5b60006114d586828701611015565b935050602084013567ffffffffffffffff8111156114f6576114f5610ff9565b5b611502868287016113bd565b925050604084013567ffffffffffffffff81111561152357611522610ff9565b5b61152f86828701611480565b9150509250925092565b600060208201905061154e60008301846110b3565b92915050565b7f4e487b7100000000000000000000000000000000000000000000000000000000600052601160045260246000fd5b600061158e82610cae565b915061159983610cae565b92508282019050808211156115b1576115b0611554565b5b92915050565b7f4e487b7100000000000000000000000000000000000000000000000000000000600052602260045260246000fd5b600060028204905060018216806115fe57607f821691505b602082108103611611576116106115b7565b5b50919050565b7f4e487b7100000000000000000000000000000000000000000000000000000000600052603260045260246000fd5b600061165182610cae565b91507fffffffffffffffffffffffffffffffffffffffffffffffffffffffffffffffff820361168357611682611554565b5b600182019050919050565b600082825260208201905092915050565b7f4f776e61626c653a206e6577206f776e657220697320746865207a65726f206160008201527f6464726573730000000000000000000000000000000000000000000000000000602082015250565b60006116fb60268361168e565b91506117068261169f565b604082019050919050565b6000602082019050818103600083015261172a816116ee565b9050919050565b7f4f776e61626c653a2063616c6c6572206973206e6f7420746865206f776e6572600082015250565b600061176760208361168e565b915061177282611731565b602082019050919050565b600060208201905081810360008301526117968161175a565b9050919050565b60008190508160005260206000209050919050565b60006020601f8301049050919050565b600082821b905092915050565b6000600883026117ff7fffffffffffffffffffffffffffffffffffffffffffffffffffffffffffffffff826117c2565b61180986836117c2565b95508019841693508086168417925050509392505050565b6000819050919050565b600061184661184161183c84610cae565b611821565b610cae565b9050919050565b6000819050919050565b6118608361182b565b61187461186c8261184d565b8484546117cf565b825550505050565b600090565b61188961187c565b611894818484611857565b505050565b5b818110156118b8576118ad600082611881565b60018101905061189a565b5050565b601f8211156118fd576118ce8161179d565b6118d7846117b2565b810160208510156118e6578190505b6118fa6118f2856117b2565b830182611899565b50505b505050565b600082821c905092915050565b600061192060001984600802611902565b1980831691505092915050565b6000611939838361190f565b9150826002028217905092915050565b61195282610cf3565b67ffffffffffffffff81111561196b5761196a6111d5565b5b61197582546115e6565b6119808282856118bc565b600060209050601f8311600181146119b357600084156119a1578287015190505b6119ab858261192d565b865550611a13565b601f1984166119c18661179d565b60005b828110156119e9578489015182556001820191506020850194506020810190506119c4565b86831015611a065784890151611a02601f89168261190f565b8355505b6001600288020188555050505b50505050505056fea264697066735822122002fbe91506e263cd7b19dc642e270285eed797149329cf1950f3c6448869b12164736f6c63430008180033",
  "linkReferences": {},
  "deployedLinkReferences": {}
}