{
  "_format": "hh-sol-artifact-1",
  "contractName": "NewUsers",
  "sourceName": "contracts/User.sol",
  "abi": [
    {
      "anonymous": false,
      "inputs": [
        {
          "indexed": false,
          "internalType": "uint256",
          "name": "userId",
          "type": "uint256"
        },
        {
          "indexed": false,
          "internalType": "address",
          "name": "userAddress",
          "type": "address"
        }
      ],
      "name": "UserRegistered",
      "type": "event"
    },
    {
      "inputs": [
        {
          "internalType": "address",
          "name": "userAddress",
          "type": "address"
        }
      ],
      "name": "getUserByAddress",
      "outputs": [
        {
          "components": [
            {
              "internalType": "string",
              "name": "firstName",
              "type": "string"
            },
            {
              "internalType": "string",
              "name": "lastName",
              "type": "string"
            },
            {
              "internalType": "uint256",
              "name": "amountSpent",
              "type": "uint256"
            },
            {
              "internalType": "uint256",
              "name": "userId",
              "type": "uint256"
            },
            {
              "internalType": "address",
              "name": "userAddress",
              "type": "address"
            }
          ],
          "internalType": "struct NewUsers.User",
          "name": "",
          "type": "tuple"
        }
      ],
      "stateMutability": "view",
      "type": "function"
    },
    {
      "inputs": [],
      "name": "getUsers",
      "outputs": [
        {
          "components": [
            {
              "internalType": "string",
              "name": "firstName",
              "type": "string"
            },
            {
              "internalType": "string",
              "name": "lastName",
              "type": "string"
            },
            {
              "internalType": "uint256",
              "name": "amountSpent",
              "type": "uint256"
            },
            {
              "internalType": "uint256",
              "name": "userId",
              "type": "uint256"
            },
            {
              "internalType": "address",
              "name": "userAddress",
              "type": "address"
            }
          ],
          "internalType": "struct NewUsers.User[]",
          "name": "",
          "type": "tuple[]"
        }
      ],
      "stateMutability": "view",
      "type": "function"
    },
    {
      "inputs": [
        {
          "internalType": "string",
          "name": "firstName",
          "type": "string"
        },
        {
          "internalType": "string",
          "name": "lastName",
          "type": "string"
        }
      ],
      "name": "registerUser",
      "outputs": [
        {
          "internalType": "uint256",
          "name": "",
          "type": "uint256"
        }
      ],
      "stateMutability": "nonpayable",
      "type": "function"
    },
    {
      "inputs": [
        {
          "internalType": "uint256",
          "name": "amount",
          "type": "uint256"
        }
      ],
      "name": "updateAmountSpent",
      "outputs": [],
      "stateMutability": "nonpayable",
      "type": "function"
    },
    {
      "inputs": [
        {
          "internalType": "address",
          "name": "",
          "type": "address"
        }
      ],
      "name": "userAddressToId",
      "outputs": [
        {
          "internalType": "uint256",
          "name": "",
          "type": "uint256"
        }
      ],
      "stateMutability": "view",
      "type": "function"
    },
    {
      "inputs": [
        {
          "internalType": "uint256",
          "name": "",
          "type": "uint256"
        }
      ],
      "name": "users",
      "outputs": [
        {
          "internalType": "string",
          "name": "firstName",
          "type": "string"
        },
        {
          "internalType": "string",
          "name": "lastName",
          "type": "string"
        },
        {
          "internalType": "uint256",
          "name": "amountSpent",
          "type": "uint256"
        },
        {
          "internalType": "uint256",
          "name": "userId",
          "type": "uint256"
        },
        {
          "internalType": "address",
          "name": "userAddress",
          "type": "address"
        }
      ],
      "stateMutability": "view",
      "type": "function"
    }
  ],
  "bytecode": "0x608060405234801561001057600080fd5b50611593806100206000396000f3fe608060405234801561001057600080fd5b50600436106100615760003560e01c8062ce8e3e146100665780631d2e4afd146100845780632c29bc72146100b4578063365b98b2146100d057806369c212f6146101045780639f78a94614610134575b600080fd5b61006e610164565b60405161007b9190610cd4565b60405180910390f35b61009e60048036038101906100999190610e3f565b6103cc565b6040516100ab9190610ec6565b60405180910390f35b6100ce60048036038101906100c99190610f0d565b6105c9565b005b6100ea60048036038101906100e59190610f0d565b610681565b6040516100fb959493929190610f93565b60405180910390f35b61011e60048036038101906101199190611020565b6107e7565b60405161012b91906110ca565b60405180910390f35b61014e60048036038101906101499190611020565b610a2a565b60405161015b9190610ec6565b60405180910390f35b606060006101726000610a42565b67ffffffffffffffff81111561018b5761018a610d14565b5b6040519080825280602002602001820160405280156101c457816020015b6101b1610a66565b8152602001906001900390816101a95790505b50905060005b6101d46000610a42565b8110156103c4576000600160006001846101ee919061111b565b81526020019081526020016000209050806040518060a001604052908160008201805461021a9061117e565b80601f01602080910402602001604051908101604052809291908181526020018280546102469061117e565b80156102935780601f1061026857610100808354040283529160200191610293565b820191906000526020600020905b81548152906001019060200180831161027657829003601f168201915b505050505081526020016001820180546102ac9061117e565b80601f01602080910402602001604051908101604052809291908181526020018280546102d89061117e565b80156103255780601f106102fa57610100808354040283529160200191610325565b820191906000526020600020905b81548152906001019060200180831161030857829003601f168201915b5050505050815260200160028201548152602001600382015481526020016004820160009054906101000a900473ffffffffffffffffffffffffffffffffffffffff1673ffffffffffffffffffffffffffffffffffffffff1673ffffffffffffffffffffffffffffffffffffffff16815250508383815181106103ab576103aa6111af565b5b60200260200101819052505080806001019150506101ca565b508091505090565b600080600260003373ffffffffffffffffffffffffffffffffffffffff1673ffffffffffffffffffffffffffffffffffffffff168152602001908152602001600020541461044f576040517f08c379a00000000000000000000000000000000000000000000000000000000081526004016104469061122a565b60405180910390fd5b6104596000610a50565b60006104656000610a42565b90506040518060a00160405280858152602001848152602001600081526020018281526020013373ffffffffffffffffffffffffffffffffffffffff168152506001600083815260200190815260200160002060008201518160000190816104cd91906113f6565b5060208201518160010190816104e391906113f6565b50604082015181600201556060820151816003015560808201518160040160006101000a81548173ffffffffffffffffffffffffffffffffffffffff021916908373ffffffffffffffffffffffffffffffffffffffff16021790555090505080600260003373ffffffffffffffffffffffffffffffffffffffff1673ffffffffffffffffffffffffffffffffffffffff168152602001908152602001600020819055507fb442efe467d2ef30e62927a3cae0afcbc799a8a0944d8a143332e4e5e51cee5d81336040516105b79291906114c8565b60405180910390a18091505092915050565b6000600260003373ffffffffffffffffffffffffffffffffffffffff1673ffffffffffffffffffffffffffffffffffffffff16815260200190815260200160002054905060008103610650576040517f08c379a00000000000000000000000000000000000000000000000000000000081526004016106479061153d565b60405180910390fd5b81600160008381526020019081526020016000206002016000828254610676919061111b565b925050819055505050565b60016020528060005260406000206000915090508060000180546106a49061117e565b80601f01602080910402602001604051908101604052809291908181526020018280546106d09061117e565b801561071d5780601f106106f25761010080835404028352916020019161071d565b820191906000526020600020905b81548152906001019060200180831161070057829003601f168201915b5050505050908060010180546107329061117e565b80601f016020809104026020016040519081016040528092919081815260200182805461075e9061117e565b80156107ab5780601f10610780576101008083540402835291602001916107ab565b820191906000526020600020905b81548152906001019060200180831161078e57829003601f168201915b5050505050908060020154908060030154908060040160009054906101000a900473ffffffffffffffffffffffffffffffffffffffff16905085565b6107ef610a66565b6000600260008473ffffffffffffffffffffffffffffffffffffffff1673ffffffffffffffffffffffffffffffffffffffff16815260200190815260200160002054905060008103610876576040517f08c379a000000000000000000000000000000000000000000000000000000000815260040161086d9061153d565b60405180910390fd5b600160008281526020019081526020016000206040518060a00160405290816000820180546108a49061117e565b80601f01602080910402602001604051908101604052809291908181526020018280546108d09061117e565b801561091d5780601f106108f25761010080835404028352916020019161091d565b820191906000526020600020905b81548152906001019060200180831161090057829003601f168201915b505050505081526020016001820180546109369061117e565b80601f01602080910402602001604051908101604052809291908181526020018280546109629061117e565b80156109af5780601f10610984576101008083540402835291602001916109af565b820191906000526020600020905b81548152906001019060200180831161099257829003601f168201915b5050505050815260200160028201548152602001600382015481526020016004820160009054906101000a900473ffffffffffffffffffffffffffffffffffffffff1673ffffffffffffffffffffffffffffffffffffffff1673ffffffffffffffffffffffffffffffffffffffff1681525050915050919050565b60026020528060005260406000206000915090505481565b600081600001549050919050565b6001816000016000828254019250508190555050565b6040518060a0016040528060608152602001606081526020016000815260200160008152602001600073ffffffffffffffffffffffffffffffffffffffff1681525090565b600081519050919050565b600082825260208201905092915050565b6000819050602082019050919050565b600081519050919050565b600082825260208201905092915050565b60005b83811015610b11578082015181840152602081019050610af6565b60008484015250505050565b6000601f19601f8301169050919050565b6000610b3982610ad7565b610b438185610ae2565b9350610b53818560208601610af3565b610b5c81610b1d565b840191505092915050565b6000819050919050565b610b7a81610b67565b82525050565b600073ffffffffffffffffffffffffffffffffffffffff82169050919050565b6000610bab82610b80565b9050919050565b610bbb81610ba0565b82525050565b600060a0830160008301518482036000860152610bde8282610b2e565b91505060208301518482036020860152610bf88282610b2e565b9150506040830151610c0d6040860182610b71565b506060830151610c206060860182610b71565b506080830151610c336080860182610bb2565b508091505092915050565b6000610c4a8383610bc1565b905092915050565b6000602082019050919050565b6000610c6a82610aab565b610c748185610ab6565b935083602082028501610c8685610ac7565b8060005b85811015610cc25784840389528151610ca38582610c3e565b9450610cae83610c52565b925060208a01995050600181019050610c8a565b50829750879550505050505092915050565b60006020820190508181036000830152610cee8184610c5f565b905092915050565b6000604051905090565b600080fd5b600080fd5b600080fd5b600080fd5b7f4e487b7100000000000000000000000000000000000000000000000000000000600052604160045260246000fd5b610d4c82610b1d565b810181811067ffffffffffffffff82111715610d6b57610d6a610d14565b5b80604052505050565b6000610d7e610cf6565b9050610d8a8282610d43565b919050565b600067ffffffffffffffff821115610daa57610da9610d14565b5b610db382610b1d565b9050602081019050919050565b82818337600083830152505050565b6000610de2610ddd84610d8f565b610d74565b905082815260208101848484011115610dfe57610dfd610d0f565b5b610e09848285610dc0565b509392505050565b600082601f830112610e2657610e25610d0a565b5b8135610e36848260208601610dcf565b91505092915050565b60008060408385031215610e5657610e55610d00565b5b600083013567ffffffffffffffff811115610e7457610e73610d05565b5b610e8085828601610e11565b925050602083013567ffffffffffffffff811115610ea157610ea0610d05565b5b610ead85828601610e11565b9150509250929050565b610ec081610b67565b82525050565b6000602082019050610edb6000830184610eb7565b92915050565b610eea81610b67565b8114610ef557600080fd5b50565b600081359050610f0781610ee1565b92915050565b600060208284031215610f2357610f22610d00565b5b6000610f3184828501610ef8565b91505092915050565b600082825260208201905092915050565b6000610f5682610ad7565b610f608185610f3a565b9350610f70818560208601610af3565b610f7981610b1d565b840191505092915050565b610f8d81610ba0565b82525050565b600060a0820190508181036000830152610fad8188610f4b565b90508181036020830152610fc18187610f4b565b9050610fd06040830186610eb7565b610fdd6060830185610eb7565b610fea6080830184610f84565b9695505050505050565b610ffd81610ba0565b811461100857600080fd5b50565b60008135905061101a81610ff4565b92915050565b60006020828403121561103657611035610d00565b5b60006110448482850161100b565b91505092915050565b600060a083016000830151848203600086015261106a8282610b2e565b915050602083015184820360208601526110848282610b2e565b91505060408301516110996040860182610b71565b5060608301516110ac6060860182610b71565b5060808301516110bf6080860182610bb2565b508091505092915050565b600060208201905081810360008301526110e4818461104d565b905092915050565b7f4e487b7100000000000000000000000000000000000000000000000000000000600052601160045260246000fd5b600061112682610b67565b915061113183610b67565b9250828201905080821115611149576111486110ec565b5b92915050565b7f4e487b7100000000000000000000000000000000000000000000000000000000600052602260045260246000fd5b6000600282049050600182168061119657607f821691505b6020821081036111a9576111a861114f565b5b50919050565b7f4e487b7100000000000000000000000000000000000000000000000000000000600052603260045260246000fd5b7f5573657220616c72656164792065786973747300000000000000000000000000600082015250565b6000611214601383610f3a565b915061121f826111de565b602082019050919050565b6000602082019050818103600083015261124381611207565b9050919050565b60008190508160005260206000209050919050565b60006020601f8301049050919050565b600082821b905092915050565b6000600883026112ac7fffffffffffffffffffffffffffffffffffffffffffffffffffffffffffffffff8261126f565b6112b6868361126f565b95508019841693508086168417925050509392505050565b6000819050919050565b60006112f36112ee6112e984610b67565b6112ce565b610b67565b9050919050565b6000819050919050565b61130d836112d8565b611321611319826112fa565b84845461127c565b825550505050565b600090565b611336611329565b611341818484611304565b505050565b5b818110156113655761135a60008261132e565b600181019050611347565b5050565b601f8211156113aa5761137b8161124a565b6113848461125f565b81016020851015611393578190505b6113a761139f8561125f565b830182611346565b50505b505050565b600082821c905092915050565b60006113cd600019846008026113af565b1980831691505092915050565b60006113e683836113bc565b9150826002028217905092915050565b6113ff82610ad7565b67ffffffffffffffff81111561141857611417610d14565b5b611422825461117e565b61142d828285611369565b600060209050601f831160018114611460576000841561144e578287015190505b61145885826113da565b8655506114c0565b601f19841661146e8661124a565b60005b8281101561149657848901518255600182019150602085019450602081019050611471565b868310156114b357848901516114af601f8916826113bc565b8355505b6001600288020188555050505b505050505050565b60006040820190506114dd6000830185610eb7565b6114ea6020830184610f84565b9392505050565b7f55736572206e6f7420666f756e64000000000000000000000000000000000000600082015250565b6000611527600e83610f3a565b9150611532826114f1565b602082019050919050565b600060208201905081810360008301526115568161151a565b905091905056fea264697066735822122084a2658867d3d142ae44cc0440553a8f61c0c2133a10742383e3371e826a03df64736f6c63430008180033",
  "linkReferences": {},
  "deployedLinkReferences": {}
}