{
  "_format": "hh-sol-artifact-1",
  "contractName": "Users",
  "sourceName": "contracts/User copy.sol",
  "abi": [
    {
      "anonymous": false,
      "inputs": [
        {
          "indexed": true,
          "internalType": "address",
          "name": "previousOwner",
          "type": "address"
        },
        {
          "indexed": true,
          "internalType": "address",
          "name": "newOwner",
          "type": "address"
        }
      ],
      "name": "OwnershipTransferred",
      "type": "event"
    },
    {
      "inputs": [
        {
          "internalType": "uint256",
          "name": "userId",
          "type": "uint256"
        }
      ],
      "name": "getUserId",
      "outputs": [
        {
          "components": [
            {
              "internalType": "string",
              "name": "firstName",
              "type": "string"
            },
            {
              "internalType": "string",
              "name": "lastName",
              "type": "string"
            },
            {
              "internalType": "uint256",
              "name": "amountSpent",
              "type": "uint256"
            },
            {
              "internalType": "uint256",
              "name": "userId",
              "type": "uint256"
            }
          ],
          "internalType": "struct Users.User",
          "name": "",
          "type": "tuple"
        }
      ],
      "stateMutability": "view",
      "type": "function"
    },
    {
      "inputs": [],
      "name": "getUsers",
      "outputs": [
        {
          "components": [
            {
              "internalType": "string",
              "name": "firstName",
              "type": "string"
            },
            {
              "internalType": "string",
              "name": "lastName",
              "type": "string"
            },
            {
              "internalType": "uint256",
              "name": "amountSpent",
              "type": "uint256"
            },
            {
              "internalType": "uint256",
              "name": "userId",
              "type": "uint256"
            }
          ],
          "internalType": "struct Users.User[]",
          "name": "",
          "type": "tuple[]"
        }
      ],
      "stateMutability": "view",
      "type": "function"
    },
    {
      "inputs": [
        {
          "internalType": "string",
          "name": "firstName",
          "type": "string"
        },
        {
          "internalType": "string",
          "name": "lastName",
          "type": "string"
        }
      ],
      "name": "insertUser",
      "outputs": [
        {
          "internalType": "uint256",
          "name": "",
          "type": "uint256"
        }
      ],
      "stateMutability": "nonpayable",
      "type": "function"
    },
    {
      "inputs": [],
      "name": "owner",
      "outputs": [
        {
          "internalType": "address",
          "name": "",
          "type": "address"
        }
      ],
      "stateMutability": "view",
      "type": "function"
    },
    {
      "inputs": [
        {
          "internalType": "uint256",
          "name": "userId",
          "type": "uint256"
        },
        {
          "internalType": "uint256",
          "name": "amount",
          "type": "uint256"
        }
      ],
      "name": "register",
      "outputs": [],
      "stateMutability": "nonpayable",
      "type": "function"
    },
    {
      "inputs": [],
      "name": "renounceOwnership",
      "outputs": [],
      "stateMutability": "nonpayable",
      "type": "function"
    },
    {
      "inputs": [
        {
          "internalType": "address",
          "name": "newOwner",
          "type": "address"
        }
      ],
      "name": "transferOwnership",
      "outputs": [],
      "stateMutability": "nonpayable",
      "type": "function"
    },
    {
      "inputs": [
        {
          "internalType": "uint256",
          "name": "",
          "type": "uint256"
        }
      ],
      "name": "users",
      "outputs": [
        {
          "internalType": "string",
          "name": "firstName",
          "type": "string"
        },
        {
          "internalType": "string",
          "name": "lastName",
          "type": "string"
        },
        {
          "internalType": "uint256",
          "name": "amountSpent",
          "type": "uint256"
        },
        {
          "internalType": "uint256",
          "name": "userId",
          "type": "uint256"
        }
      ],
      "stateMutability": "view",
      "type": "function"
    }
  ],
  "bytecode": "0x608060405234801561001057600080fd5b5061002d61002261003260201b60201c565b61003a60201b60201c565b6100fe565b600033905090565b60008060009054906101000a900473ffffffffffffffffffffffffffffffffffffffff169050816000806101000a81548173ffffffffffffffffffffffffffffffffffffffff021916908373ffffffffffffffffffffffffffffffffffffffff1602179055508173ffffffffffffffffffffffffffffffffffffffff168173ffffffffffffffffffffffffffffffffffffffff167f8be0079c531659141344cd1fd0a4f28419497f9722a3daafe3b4186f6b6457e060405160405180910390a35050565b61148a8061010d6000396000f3fe608060405234801561001057600080fd5b50600436106100875760003560e01c80638da5cb5b1161005b5780638da5cb5b14610117578063d66d6c1014610135578063ebc9811714610151578063f2fde38b1461018157610087565b8062ce8e3e1461008c57806334979627146100aa578063365b98b2146100da578063715018a61461010d575b600080fd5b61009461019d565b6040516100a19190610b62565b60405180910390f35b6100c460048036038101906100bf9190610ccd565b6103af565b6040516100d19190610d54565b60405180910390f35b6100f460048036038101906100ef9190610d9b565b610459565b6040516101049493929190610e12565b60405180910390f35b610115610599565b005b61011f6105ad565b60405161012c9190610ea6565b60405180910390f35b61014f600480360381019061014a9190610ec1565b6105d6565b005b61016b60048036038101906101669190610d9b565b61060f565b6040516101789190610f6b565b60405180910390f35b61019b60048036038101906101969190610fb9565b610774565b005b606060006101ab60016107f7565b67ffffffffffffffff8111156101c4576101c3610ba2565b5b6040519080825280602002602001820160405280156101fd57816020015b6101ea610965565b8152602001906001900390816101e25790505b50905060005b61020d60016107f7565b8110156103a7576000600260006001846102279190611015565b815260200190815260200160002090508060405180608001604052908160008201805461025390611078565b80601f016020809104026020016040519081016040528092919081815260200182805461027f90611078565b80156102cc5780601f106102a1576101008083540402835291602001916102cc565b820191906000526020600020905b8154815290600101906020018083116102af57829003601f168201915b505050505081526020016001820180546102e590611078565b80601f016020809104026020016040519081016040528092919081815260200182805461031190611078565b801561035e5780601f106103335761010080835404028352916020019161035e565b820191906000526020600020905b81548152906001019060200180831161034157829003601f168201915b505050505081526020016002820154815260200160038201548152505083838151811061038e5761038d6110a9565b5b6020026020010181905250508080600101915050610203565b508091505090565b60006103b9610805565b6103c36001610883565b60006103cf60016107f7565b90506000604051806080016040528086815260200185815260200160008152602001838152509050806002600084815260200190815260200160002060008201518160000190816104209190611284565b5060208201518160010190816104369190611284565b506040820151816002015560608201518160030155905050819250505092915050565b600260205280600052604060002060009150905080600001805461047c90611078565b80601f01602080910402602001604051908101604052809291908181526020018280546104a890611078565b80156104f55780601f106104ca576101008083540402835291602001916104f5565b820191906000526020600020905b8154815290600101906020018083116104d857829003601f168201915b50505050509080600101805461050a90611078565b80601f016020809104026020016040519081016040528092919081815260200182805461053690611078565b80156105835780601f1061055857610100808354040283529160200191610583565b820191906000526020600020905b81548152906001019060200180831161056657829003601f168201915b5050505050908060020154908060030154905084565b6105a1610805565b6105ab6000610899565b565b60008060009054906101000a900473ffffffffffffffffffffffffffffffffffffffff16905090565b6105de610805565b806002600084815260200190815260200160002060020160008282546106049190611015565b925050819055505050565b610617610965565b6002600083815260200190815260200160002060405180608001604052908160008201805461064590611078565b80601f016020809104026020016040519081016040528092919081815260200182805461067190611078565b80156106be5780601f10610693576101008083540402835291602001916106be565b820191906000526020600020905b8154815290600101906020018083116106a157829003601f168201915b505050505081526020016001820180546106d790611078565b80601f016020809104026020016040519081016040528092919081815260200182805461070390611078565b80156107505780601f1061072557610100808354040283529160200191610750565b820191906000526020600020905b81548152906001019060200180831161073357829003601f168201915b50505050508152602001600282015481526020016003820154815250509050919050565b61077c610805565b600073ffffffffffffffffffffffffffffffffffffffff168173ffffffffffffffffffffffffffffffffffffffff16036107eb576040517f08c379a00000000000000000000000000000000000000000000000000000000081526004016107e2906113c8565b60405180910390fd5b6107f481610899565b50565b600081600001549050919050565b61080d61095d565b73ffffffffffffffffffffffffffffffffffffffff1661082b6105ad565b73ffffffffffffffffffffffffffffffffffffffff1614610881576040517f08c379a000000000000000000000000000000000000000000000000000000000815260040161087890611434565b60405180910390fd5b565b6001816000016000828254019250508190555050565b60008060009054906101000a900473ffffffffffffffffffffffffffffffffffffffff169050816000806101000a81548173ffffffffffffffffffffffffffffffffffffffff021916908373ffffffffffffffffffffffffffffffffffffffff1602179055508173ffffffffffffffffffffffffffffffffffffffff168173ffffffffffffffffffffffffffffffffffffffff167f8be0079c531659141344cd1fd0a4f28419497f9722a3daafe3b4186f6b6457e060405160405180910390a35050565b600033905090565b6040518060800160405280606081526020016060815260200160008152602001600081525090565b600081519050919050565b600082825260208201905092915050565b6000819050602082019050919050565b600081519050919050565b600082825260208201905092915050565b60005b838110156109f35780820151818401526020810190506109d8565b60008484015250505050565b6000601f19601f8301169050919050565b6000610a1b826109b9565b610a2581856109c4565b9350610a358185602086016109d5565b610a3e816109ff565b840191505092915050565b6000819050919050565b610a5c81610a49565b82525050565b60006080830160008301518482036000860152610a7f8282610a10565b91505060208301518482036020860152610a998282610a10565b9150506040830151610aae6040860182610a53565b506060830151610ac16060860182610a53565b508091505092915050565b6000610ad88383610a62565b905092915050565b6000602082019050919050565b6000610af88261098d565b610b028185610998565b935083602082028501610b14856109a9565b8060005b85811015610b505784840389528151610b318582610acc565b9450610b3c83610ae0565b925060208a01995050600181019050610b18565b50829750879550505050505092915050565b60006020820190508181036000830152610b7c8184610aed565b905092915050565b6000604051905090565b600080fd5b600080fd5b600080fd5b600080fd5b7f4e487b7100000000000000000000000000000000000000000000000000000000600052604160045260246000fd5b610bda826109ff565b810181811067ffffffffffffffff82111715610bf957610bf8610ba2565b5b80604052505050565b6000610c0c610b84565b9050610c188282610bd1565b919050565b600067ffffffffffffffff821115610c3857610c37610ba2565b5b610c41826109ff565b9050602081019050919050565b82818337600083830152505050565b6000610c70610c6b84610c1d565b610c02565b905082815260208101848484011115610c8c57610c8b610b9d565b5b610c97848285610c4e565b509392505050565b600082601f830112610cb457610cb3610b98565b5b8135610cc4848260208601610c5d565b91505092915050565b60008060408385031215610ce457610ce3610b8e565b5b600083013567ffffffffffffffff811115610d0257610d01610b93565b5b610d0e85828601610c9f565b925050602083013567ffffffffffffffff811115610d2f57610d2e610b93565b5b610d3b85828601610c9f565b9150509250929050565b610d4e81610a49565b82525050565b6000602082019050610d696000830184610d45565b92915050565b610d7881610a49565b8114610d8357600080fd5b50565b600081359050610d9581610d6f565b92915050565b600060208284031215610db157610db0610b8e565b5b6000610dbf84828501610d86565b91505092915050565b600082825260208201905092915050565b6000610de4826109b9565b610dee8185610dc8565b9350610dfe8185602086016109d5565b610e07816109ff565b840191505092915050565b60006080820190508181036000830152610e2c8187610dd9565b90508181036020830152610e408186610dd9565b9050610e4f6040830185610d45565b610e5c6060830184610d45565b95945050505050565b600073ffffffffffffffffffffffffffffffffffffffff82169050919050565b6000610e9082610e65565b9050919050565b610ea081610e85565b82525050565b6000602082019050610ebb6000830184610e97565b92915050565b60008060408385031215610ed857610ed7610b8e565b5b6000610ee685828601610d86565b9250506020610ef785828601610d86565b9150509250929050565b60006080830160008301518482036000860152610f1e8282610a10565b91505060208301518482036020860152610f388282610a10565b9150506040830151610f4d6040860182610a53565b506060830151610f606060860182610a53565b508091505092915050565b60006020820190508181036000830152610f858184610f01565b905092915050565b610f9681610e85565b8114610fa157600080fd5b50565b600081359050610fb381610f8d565b92915050565b600060208284031215610fcf57610fce610b8e565b5b6000610fdd84828501610fa4565b91505092915050565b7f4e487b7100000000000000000000000000000000000000000000000000000000600052601160045260246000fd5b600061102082610a49565b915061102b83610a49565b925082820190508082111561104357611042610fe6565b5b92915050565b7f4e487b7100000000000000000000000000000000000000000000000000000000600052602260045260246000fd5b6000600282049050600182168061109057607f821691505b6020821081036110a3576110a2611049565b5b50919050565b7f4e487b7100000000000000000000000000000000000000000000000000000000600052603260045260246000fd5b60008190508160005260206000209050919050565b60006020601f8301049050919050565b600082821b905092915050565b60006008830261113a7fffffffffffffffffffffffffffffffffffffffffffffffffffffffffffffffff826110fd565b61114486836110fd565b95508019841693508086168417925050509392505050565b6000819050919050565b600061118161117c61117784610a49565b61115c565b610a49565b9050919050565b6000819050919050565b61119b83611166565b6111af6111a782611188565b84845461110a565b825550505050565b600090565b6111c46111b7565b6111cf818484611192565b505050565b5b818110156111f3576111e86000826111bc565b6001810190506111d5565b5050565b601f82111561123857611209816110d8565b611212846110ed565b81016020851015611221578190505b61123561122d856110ed565b8301826111d4565b50505b505050565b600082821c905092915050565b600061125b6000198460080261123d565b1980831691505092915050565b6000611274838361124a565b9150826002028217905092915050565b61128d826109b9565b67ffffffffffffffff8111156112a6576112a5610ba2565b5b6112b08254611078565b6112bb8282856111f7565b600060209050601f8311600181146112ee57600084156112dc578287015190505b6112e68582611268565b86555061134e565b601f1984166112fc866110d8565b60005b82811015611324578489015182556001820191506020850194506020810190506112ff565b86831015611341578489015161133d601f89168261124a565b8355505b6001600288020188555050505b505050505050565b7f4f776e61626c653a206e6577206f776e657220697320746865207a65726f206160008201527f6464726573730000000000000000000000000000000000000000000000000000602082015250565b60006113b2602683610dc8565b91506113bd82611356565b604082019050919050565b600060208201905081810360008301526113e1816113a5565b9050919050565b7f4f776e61626c653a2063616c6c6572206973206e6f7420746865206f776e6572600082015250565b600061141e602083610dc8565b9150611429826113e8565b602082019050919050565b6000602082019050818103600083015261144d81611411565b905091905056fea2646970667358221220a2f590b678ede5369855acfba65f9d194ce20b8a38a5c96983a35afcb1b2967264736f6c63430008180033",
  "linkReferences": {},
  "deployedLinkReferences": {}
}