{
  "_format": "hh-sol-artifact-1",
  "contractName": "CauseFund",
  "sourceName": "contracts/Cause.sol",
  "abi": [
    {
      "anonymous": false,
      "inputs": [
        {
          "indexed": false,
          "internalType": "uint256",
          "name": "causeId",
          "type": "uint256"
        },
        {
          "indexed": false,
          "internalType": "string",
          "name": "name",
          "type": "string"
        },
        {
          "indexed": false,
          "internalType": "string",
          "name": "description",
          "type": "string"
        },
        {
          "indexed": false,
          "internalType": "string",
          "name": "imageURL",
          "type": "string"
        }
      ],
      "name": "CauseCreated",
      "type": "event"
    },
    {
      "anonymous": false,
      "inputs": [
        {
          "indexed": false,
          "internalType": "uint256",
          "name": "causeId",
          "type": "uint256"
        },
        {
          "indexed": false,
          "internalType": "address",
          "name": "donor",
          "type": "address"
        },
        {
          "indexed": false,
          "internalType": "uint256",
          "name": "amount",
          "type": "uint256"
        }
      ],
      "name": "DonationReceived",
      "type": "event"
    },
    {
      "anonymous": false,
      "inputs": [
        {
          "indexed": true,
          "internalType": "address",
          "name": "previousOwner",
          "type": "address"
        },
        {
          "indexed": true,
          "internalType": "address",
          "name": "newOwner",
          "type": "address"
        }
      ],
      "name": "OwnershipTransferred",
      "type": "event"
    },
    {
      "inputs": [
        {
          "internalType": "uint256",
          "name": "",
          "type": "uint256"
        }
      ],
      "name": "causes",
      "outputs": [
        {
          "internalType": "string",
          "name": "name",
          "type": "string"
        },
        {
          "internalType": "string",
          "name": "description",
          "type": "string"
        },
        {
          "internalType": "string",
          "name": "imageURL",
          "type": "string"
        },
        {
          "internalType": "uint256",
          "name": "totalDonations",
          "type": "uint256"
        },
        {
          "internalType": "uint256",
          "name": "causeId",
          "type": "uint256"
        }
      ],
      "stateMutability": "view",
      "type": "function"
    },
    {
      "inputs": [
        {
          "internalType": "string",
          "name": "name",
          "type": "string"
        },
        {
          "internalType": "string",
          "name": "description",
          "type": "string"
        },
        {
          "internalType": "string",
          "name": "imageURL",
          "type": "string"
        }
      ],
      "name": "createCause",
      "outputs": [
        {
          "internalType": "uint256",
          "name": "",
          "type": "uint256"
        }
      ],
      "stateMutability": "nonpayable",
      "type": "function"
    },
    {
      "inputs": [
        {
          "internalType": "uint256",
          "name": "causeId",
          "type": "uint256"
        }
      ],
      "name": "donate",
      "outputs": [],
      "stateMutability": "payable",
      "type": "function"
    },
    {
      "inputs": [
        {
          "internalType": "address",
          "name": "",
          "type": "address"
        }
      ],
      "name": "donations",
      "outputs": [
        {
          "internalType": "uint256",
          "name": "",
          "type": "uint256"
        }
      ],
      "stateMutability": "view",
      "type": "function"
    },
    {
      "inputs": [],
      "name": "getAllCauses",
      "outputs": [
        {
          "components": [
            {
              "internalType": "string",
              "name": "name",
              "type": "string"
            },
            {
              "internalType": "string",
              "name": "description",
              "type": "string"
            },
            {
              "internalType": "string",
              "name": "imageURL",
              "type": "string"
            },
            {
              "internalType": "uint256",
              "name": "totalDonations",
              "type": "uint256"
            },
            {
              "internalType": "uint256",
              "name": "causeId",
              "type": "uint256"
            }
          ],
          "internalType": "struct CauseFund.Cause[]",
          "name": "",
          "type": "tuple[]"
        }
      ],
      "stateMutability": "view",
      "type": "function"
    },
    {
      "inputs": [
        {
          "internalType": "uint256",
          "name": "causeId",
          "type": "uint256"
        }
      ],
      "name": "getCauseDetails",
      "outputs": [
        {
          "components": [
            {
              "internalType": "string",
              "name": "name",
              "type": "string"
            },
            {
              "internalType": "string",
              "name": "description",
              "type": "string"
            },
            {
              "internalType": "string",
              "name": "imageURL",
              "type": "string"
            },
            {
              "internalType": "uint256",
              "name": "totalDonations",
              "type": "uint256"
            },
            {
              "internalType": "uint256",
              "name": "causeId",
              "type": "uint256"
            }
          ],
          "internalType": "struct CauseFund.Cause",
          "name": "",
          "type": "tuple"
        }
      ],
      "stateMutability": "view",
      "type": "function"
    },
    {
      "inputs": [],
      "name": "getContractBalance",
      "outputs": [
        {
          "internalType": "uint256",
          "name": "",
          "type": "uint256"
        }
      ],
      "stateMutability": "view",
      "type": "function"
    },
    {
      "inputs": [
        {
          "internalType": "uint256",
          "name": "causeId",
          "type": "uint256"
        }
      ],
      "name": "getTotalDonations",
      "outputs": [
        {
          "internalType": "uint256",
          "name": "",
          "type": "uint256"
        }
      ],
      "stateMutability": "view",
      "type": "function"
    },
    {
      "inputs": [],
      "name": "owner",
      "outputs": [
        {
          "internalType": "address",
          "name": "",
          "type": "address"
        }
      ],
      "stateMutability": "view",
      "type": "function"
    },
    {
      "inputs": [],
      "name": "renounceOwnership",
      "outputs": [],
      "stateMutability": "nonpayable",
      "type": "function"
    },
    {
      "inputs": [
        {
          "internalType": "address",
          "name": "newOwner",
          "type": "address"
        }
      ],
      "name": "transferOwnership",
      "outputs": [],
      "stateMutability": "nonpayable",
      "type": "function"
    },
    {
      "inputs": [
        {
          "internalType": "address payable",
          "name": "recipient",
          "type": "address"
        },
        {
          "internalType": "uint256",
          "name": "amount",
          "type": "uint256"
        }
      ],
      "name": "withdrawFunds",
      "outputs": [],
      "stateMutability": "nonpayable",
      "type": "function"
    }
  ],
  "bytecode": "0x608060405234801561001057600080fd5b5061002d61002261003260201b60201c565b61003a60201b60201c565b6100fe565b600033905090565b60008060009054906101000a900473ffffffffffffffffffffffffffffffffffffffff169050816000806101000a81548173ffffffffffffffffffffffffffffffffffffffff021916908373ffffffffffffffffffffffffffffffffffffffff1602179055508173ffffffffffffffffffffffffffffffffffffffff168173ffffffffffffffffffffffffffffffffffffffff167f8be0079c531659141344cd1fd0a4f28419497f9722a3daafe3b4186f6b6457e060405160405180910390a35050565b611d938061010d6000396000f3fe6080604052600436106100a75760003560e01c8063c107532911610064578063c1075329146101d4578063cc6cb19a146101fd578063e226aec41461023a578063e38d877414610265578063f14faf6f146102a2578063f2fde38b146102be576100a7565b8063538a942a146100ac5780636f9fb98a146100ed578063715018a6146101185780638da5cb5b1461012f578063a05843c01461015a578063ab10d4b314610197575b600080fd5b3480156100b857600080fd5b506100d360048036038101906100ce9190610fd9565b6102e7565b6040516100e49594939291906110a5565b60405180910390f35b3480156100f957600080fd5b506101026104b5565b60405161010f919061110d565b60405180910390f35b34801561012457600080fd5b5061012d6104bd565b005b34801561013b57600080fd5b506101446104d1565b6040516101519190611169565b60405180910390f35b34801561016657600080fd5b50610181600480360381019061017c91906112b9565b6104fa565b60405161018e919061110d565b60405180910390f35b3480156101a357600080fd5b506101be60048036038101906101b99190610fd9565b6105f8565b6040516101cb919061143d565b60405180910390f35b3480156101e057600080fd5b506101fb60048036038101906101f6919061149d565b610848565b005b34801561020957600080fd5b50610224600480360381019061021f9190611509565b6108de565b604051610231919061110d565b60405180910390f35b34801561024657600080fd5b5061024f6108f6565b60405161025c919061167c565b60405180910390f35b34801561027157600080fd5b5061028c60048036038101906102879190610fd9565b610b9a565b604051610299919061110d565b60405180910390f35b6102bc60048036038101906102b79190610fd9565b610c12565b005b3480156102ca57600080fd5b506102e560048036038101906102e09190611509565b610d6f565b005b600260205280600052604060002060009150905080600001805461030a906116cd565b80601f0160208091040260200160405190810160405280929190818152602001828054610336906116cd565b80156103835780601f1061035857610100808354040283529160200191610383565b820191906000526020600020905b81548152906001019060200180831161036657829003601f168201915b505050505090806001018054610398906116cd565b80601f01602080910402602001604051908101604052809291908181526020018280546103c4906116cd565b80156104115780601f106103e657610100808354040283529160200191610411565b820191906000526020600020905b8154815290600101906020018083116103f457829003601f168201915b505050505090806002018054610426906116cd565b80601f0160208091040260200160405190810160405280929190818152602001828054610452906116cd565b801561049f5780601f106104745761010080835404028352916020019161049f565b820191906000526020600020905b81548152906001019060200180831161048257829003601f168201915b5050505050908060030154908060040154905085565b600047905090565b6104c5610df2565b6104cf6000610e70565b565b60008060009054906101000a900473ffffffffffffffffffffffffffffffffffffffff16905090565b6000610504610df2565b61050e6001610f34565b600061051a6001610f4a565b90506040518060a00160405280868152602001858152602001848152602001600081526020018281525060026000838152602001908152602001600020600082015181600001908161056c91906118aa565b50602082015181600101908161058291906118aa565b50604082015181600201908161059891906118aa565b5060608201518160030155608082015181600401559050507f23f9227e9a7b813d24e61167c1e7c171560484ebf25e0ea752ac7363f486b627818686866040516105e5949392919061197c565b60405180910390a1809150509392505050565b610600610f60565b6000600260008481526020019081526020016000206004015403610659576040517f08c379a000000000000000000000000000000000000000000000000000000000815260040161065090611a22565b60405180910390fd5b600260008381526020019081526020016000206040518060a0016040529081600082018054610687906116cd565b80601f01602080910402602001604051908101604052809291908181526020018280546106b3906116cd565b80156107005780601f106106d557610100808354040283529160200191610700565b820191906000526020600020905b8154815290600101906020018083116106e357829003601f168201915b50505050508152602001600182018054610719906116cd565b80601f0160208091040260200160405190810160405280929190818152602001828054610745906116cd565b80156107925780601f1061076757610100808354040283529160200191610792565b820191906000526020600020905b81548152906001019060200180831161077557829003601f168201915b505050505081526020016002820180546107ab906116cd565b80601f01602080910402602001604051908101604052809291908181526020018280546107d7906116cd565b80156108245780601f106107f957610100808354040283529160200191610824565b820191906000526020600020905b81548152906001019060200180831161080757829003601f168201915b50505050508152602001600382015481526020016004820154815250509050919050565b610850610df2565b80471015610893576040517f08c379a000000000000000000000000000000000000000000000000000000000815260040161088a90611a8e565b60405180910390fd5b8173ffffffffffffffffffffffffffffffffffffffff166108fc829081150290604051600060405180830381858888f193505050501580156108d9573d6000803e3d6000fd5b505050565b60036020528060005260406000206000915090505481565b606060006109046001610f4a565b905060008167ffffffffffffffff8111156109225761092161118e565b5b60405190808252806020026020018201604052801561095b57816020015b610948610f60565b8152602001906001900390816109405790505b5090506000600190505b828111610b9157600260008281526020019081526020016000206040518060a001604052908160008201805461099a906116cd565b80601f01602080910402602001604051908101604052809291908181526020018280546109c6906116cd565b8015610a135780601f106109e857610100808354040283529160200191610a13565b820191906000526020600020905b8154815290600101906020018083116109f657829003601f168201915b50505050508152602001600182018054610a2c906116cd565b80601f0160208091040260200160405190810160405280929190818152602001828054610a58906116cd565b8015610aa55780601f10610a7a57610100808354040283529160200191610aa5565b820191906000526020600020905b815481529060010190602001808311610a8857829003601f168201915b50505050508152602001600282018054610abe906116cd565b80601f0160208091040260200160405190810160405280929190818152602001828054610aea906116cd565b8015610b375780601f10610b0c57610100808354040283529160200191610b37565b820191906000526020600020905b815481529060010190602001808311610b1a57829003601f168201915b505050505081526020016003820154815260200160048201548152505082600183610b629190611add565b81518110610b7357610b72611b11565b5b60200260200101819052508080610b8990611b40565b915050610965565b50809250505090565b600080600260008481526020019081526020016000206004015403610bf4576040517f08c379a0000000000000000000000000000000000000000000000000000000008152600401610beb90611a22565b60405180910390fd5b60026000838152602001908152602001600020600301549050919050565b60003411610c55576040517f08c379a0000000000000000000000000000000000000000000000000000000008152600401610c4c90611bd4565b60405180910390fd5b6000600260008381526020019081526020016000206004015403610cae576040517f08c379a0000000000000000000000000000000000000000000000000000000008152600401610ca590611a22565b60405180910390fd5b34600260008381526020019081526020016000206003016000828254610cd49190611bf4565b9250508190555034600360003373ffffffffffffffffffffffffffffffffffffffff1673ffffffffffffffffffffffffffffffffffffffff1681526020019081526020016000206000828254610d2a9190611bf4565b925050819055507f0b5b4c52969ff7329ecf7ee536409fda87812b15a8622bc6e8cdeab3aee14a26813334604051610d6493929190611c28565b60405180910390a150565b610d77610df2565b600073ffffffffffffffffffffffffffffffffffffffff168173ffffffffffffffffffffffffffffffffffffffff1603610de6576040517f08c379a0000000000000000000000000000000000000000000000000000000008152600401610ddd90611cd1565b60405180910390fd5b610def81610e70565b50565b610dfa610f58565b73ffffffffffffffffffffffffffffffffffffffff16610e186104d1565b73ffffffffffffffffffffffffffffffffffffffff1614610e6e576040517f08c379a0000000000000000000000000000000000000000000000000000000008152600401610e6590611d3d565b60405180910390fd5b565b60008060009054906101000a900473ffffffffffffffffffffffffffffffffffffffff169050816000806101000a81548173ffffffffffffffffffffffffffffffffffffffff021916908373ffffffffffffffffffffffffffffffffffffffff1602179055508173ffffffffffffffffffffffffffffffffffffffff168173ffffffffffffffffffffffffffffffffffffffff167f8be0079c531659141344cd1fd0a4f28419497f9722a3daafe3b4186f6b6457e060405160405180910390a35050565b6001816000016000828254019250508190555050565b600081600001549050919050565b600033905090565b6040518060a0016040528060608152602001606081526020016060815260200160008152602001600081525090565b6000604051905090565b600080fd5b600080fd5b6000819050919050565b610fb681610fa3565b8114610fc157600080fd5b50565b600081359050610fd381610fad565b92915050565b600060208284031215610fef57610fee610f99565b5b6000610ffd84828501610fc4565b91505092915050565b600081519050919050565b600082825260208201905092915050565b60005b83811015611040578082015181840152602081019050611025565b60008484015250505050565b6000601f19601f8301169050919050565b600061106882611006565b6110728185611011565b9350611082818560208601611022565b61108b8161104c565b840191505092915050565b61109f81610fa3565b82525050565b600060a08201905081810360008301526110bf818861105d565b905081810360208301526110d3818761105d565b905081810360408301526110e7818661105d565b90506110f66060830185611096565b6111036080830184611096565b9695505050505050565b60006020820190506111226000830184611096565b92915050565b600073ffffffffffffffffffffffffffffffffffffffff82169050919050565b600061115382611128565b9050919050565b61116381611148565b82525050565b600060208201905061117e600083018461115a565b92915050565b600080fd5b600080fd5b7f4e487b7100000000000000000000000000000000000000000000000000000000600052604160045260246000fd5b6111c68261104c565b810181811067ffffffffffffffff821117156111e5576111e461118e565b5b80604052505050565b60006111f8610f8f565b905061120482826111bd565b919050565b600067ffffffffffffffff8211156112245761122361118e565b5b61122d8261104c565b9050602081019050919050565b82818337600083830152505050565b600061125c61125784611209565b6111ee565b90508281526020810184848401111561127857611277611189565b5b61128384828561123a565b509392505050565b600082601f8301126112a05761129f611184565b5b81356112b0848260208601611249565b91505092915050565b6000806000606084860312156112d2576112d1610f99565b5b600084013567ffffffffffffffff8111156112f0576112ef610f9e565b5b6112fc8682870161128b565b935050602084013567ffffffffffffffff81111561131d5761131c610f9e565b5b6113298682870161128b565b925050604084013567ffffffffffffffff81111561134a57611349610f9e565b5b6113568682870161128b565b9150509250925092565b600082825260208201905092915050565b600061137c82611006565b6113868185611360565b9350611396818560208601611022565b61139f8161104c565b840191505092915050565b6113b381610fa3565b82525050565b600060a08301600083015184820360008601526113d68282611371565b915050602083015184820360208601526113f08282611371565b9150506040830151848203604086015261140a8282611371565b915050606083015161141f60608601826113aa565b50608083015161143260808601826113aa565b508091505092915050565b6000602082019050818103600083015261145781846113b9565b905092915050565b600061146a82611128565b9050919050565b61147a8161145f565b811461148557600080fd5b50565b60008135905061149781611471565b92915050565b600080604083850312156114b4576114b3610f99565b5b60006114c285828601611488565b92505060206114d385828601610fc4565b9150509250929050565b6114e681611148565b81146114f157600080fd5b50565b600081359050611503816114dd565b92915050565b60006020828403121561151f5761151e610f99565b5b600061152d848285016114f4565b91505092915050565b600081519050919050565b600082825260208201905092915050565b6000819050602082019050919050565b600060a083016000830151848203600086015261157f8282611371565b915050602083015184820360208601526115998282611371565b915050604083015184820360408601526115b38282611371565b91505060608301516115c860608601826113aa565b5060808301516115db60808601826113aa565b508091505092915050565b60006115f28383611562565b905092915050565b6000602082019050919050565b600061161282611536565b61161c8185611541565b93508360208202850161162e85611552565b8060005b8581101561166a578484038952815161164b85826115e6565b9450611656836115fa565b925060208a01995050600181019050611632565b50829750879550505050505092915050565b600060208201905081810360008301526116968184611607565b905092915050565b7f4e487b7100000000000000000000000000000000000000000000000000000000600052602260045260246000fd5b600060028204905060018216806116e557607f821691505b6020821081036116f8576116f761169e565b5b50919050565b60008190508160005260206000209050919050565b60006020601f8301049050919050565b600082821b905092915050565b6000600883026117607fffffffffffffffffffffffffffffffffffffffffffffffffffffffffffffffff82611723565b61176a8683611723565b95508019841693508086168417925050509392505050565b6000819050919050565b60006117a76117a261179d84610fa3565b611782565b610fa3565b9050919050565b6000819050919050565b6117c18361178c565b6117d56117cd826117ae565b848454611730565b825550505050565b600090565b6117ea6117dd565b6117f58184846117b8565b505050565b5b818110156118195761180e6000826117e2565b6001810190506117fb565b5050565b601f82111561185e5761182f816116fe565b61183884611713565b81016020851015611847578190505b61185b61185385611713565b8301826117fa565b50505b505050565b600082821c905092915050565b600061188160001984600802611863565b1980831691505092915050565b600061189a8383611870565b9150826002028217905092915050565b6118b382611006565b67ffffffffffffffff8111156118cc576118cb61118e565b5b6118d682546116cd565b6118e182828561181d565b600060209050601f8311600181146119145760008415611902578287015190505b61190c858261188e565b865550611974565b601f198416611922866116fe565b60005b8281101561194a57848901518255600182019150602085019450602081019050611925565b868310156119675784890151611963601f891682611870565b8355505b6001600288020188555050505b505050505050565b60006080820190506119916000830187611096565b81810360208301526119a3818661105d565b905081810360408301526119b7818561105d565b905081810360608301526119cb818461105d565b905095945050505050565b7f4361757365206e6f7420666f756e640000000000000000000000000000000000600082015250565b6000611a0c600f83611011565b9150611a17826119d6565b602082019050919050565b60006020820190508181036000830152611a3b816119ff565b9050919050565b7f496e73756666696369656e742066756e64730000000000000000000000000000600082015250565b6000611a78601283611011565b9150611a8382611a42565b602082019050919050565b60006020820190508181036000830152611aa781611a6b565b9050919050565b7f4e487b7100000000000000000000000000000000000000000000000000000000600052601160045260246000fd5b6000611ae882610fa3565b9150611af383610fa3565b9250828203905081811115611b0b57611b0a611aae565b5b92915050565b7f4e487b7100000000000000000000000000000000000000000000000000000000600052603260045260246000fd5b6000611b4b82610fa3565b91507fffffffffffffffffffffffffffffffffffffffffffffffffffffffffffffffff8203611b7d57611b7c611aae565b5b600182019050919050565b7f446f6e6174696f6e206d7573742062652067726561746572207468616e203000600082015250565b6000611bbe601f83611011565b9150611bc982611b88565b602082019050919050565b60006020820190508181036000830152611bed81611bb1565b9050919050565b6000611bff82610fa3565b9150611c0a83610fa3565b9250828201905080821115611c2257611c21611aae565b5b92915050565b6000606082019050611c3d6000830186611096565b611c4a602083018561115a565b611c576040830184611096565b949350505050565b7f4f776e61626c653a206e6577206f776e657220697320746865207a65726f206160008201527f6464726573730000000000000000000000000000000000000000000000000000602082015250565b6000611cbb602683611011565b9150611cc682611c5f565b604082019050919050565b60006020820190508181036000830152611cea81611cae565b9050919050565b7f4f776e61626c653a2063616c6c6572206973206e6f7420746865206f776e6572600082015250565b6000611d27602083611011565b9150611d3282611cf1565b602082019050919050565b60006020820190508181036000830152611d5681611d1a565b905091905056fea2646970667358221220e2ee4402a9eac2792567cbcaade7f84ebd68f15d2e97ec0534fdcd7f3bf86c5364736f6c63430008180033",
  "linkReferences": {},
  "deployedLinkReferences": {}
}